{
  "contractName": "Certificate",
  "abi": [
    {
      "anonymous": false,
      "inputs": [
        {
          "indexed": false,
          "internalType": "string",
          "name": "userName",
          "type": "string"
        },
        {
          "indexed": false,
          "internalType": "string",
          "name": "auditDate",
          "type": "string"
        },
        {
          "indexed": false,
          "internalType": "uint256",
          "name": "score",
          "type": "uint256"
        },
        {
          "indexed": true,
          "internalType": "address",
          "name": "issuedTo",
          "type": "address"
        }
      ],
      "name": "CertificateIssued",
      "type": "event"
    },
    {
      "inputs": [
        {
          "internalType": "string",
          "name": "_userName",
          "type": "string"
        },
        {
          "internalType": "string",
          "name": "_auditDate",
          "type": "string"
        },
        {
          "internalType": "uint256",
          "name": "_score",
          "type": "uint256"
        }
      ],
      "name": "issueCertificate",
      "outputs": [],
      "stateMutability": "nonpayable",
      "type": "function"
    },
    {
      "inputs": [
        {
          "internalType": "uint256",
          "name": "index",
          "type": "uint256"
        }
      ],
      "name": "getCertificate",
      "outputs": [
        {
          "internalType": "string",
          "name": "",
          "type": "string"
        },
        {
          "internalType": "string",
          "name": "",
          "type": "string"
        },
        {
          "internalType": "uint256",
          "name": "",
          "type": "uint256"
        },
        {
          "internalType": "address",
          "name": "",
          "type": "address"
        }
      ],
      "stateMutability": "view",
      "type": "function",
      "constant": true
    },
    {
      "inputs": [],
      "name": "getTotalCertificates",
      "outputs": [
        {
          "internalType": "uint256",
          "name": "",
          "type": "uint256"
        }
      ],
      "stateMutability": "view",
      "type": "function",
      "constant": true
    }
  ],
  "bytecode": "0x608060405234801561001057600080fd5b50610732806100206000396000f3fe608060405234801561001057600080fd5b50600436106100415760003560e01c8063291fd18f1461004657806351640fee1461005b5780637843bb7914610087575b600080fd5b6100596100543660046104c9565b61009c565b005b61006e610069366004610533565b6101de565b60405161007e94939291906105cc565b60405180910390f35b61008f6103a9565b60405161007e91906106a2565b60008351116100c65760405162461bcd60e51b81526004016100bd90610613565b60405180910390fd5b60008251116100e75760405162461bcd60e51b81526004016100bd90610675565b6040805160808101825284815260208082018590529181018390523360608201526000805460018101825590805281518051929360049092027f290decd9548b62a8d60345a988386fc84ba6bc95484008f6362f93160ef3e563019261015092849201906103af565b50602082810151805161016992600185019201906103af565b506040828101516002830155606090920151600390910180546001600160a01b0319166001600160a01b039092169190911790555133907f5c560bfab2ef3dd787bb00ce5076c2fcd16c370f86e78d01a5917ba4c182a48a906101d190869086908690610596565b60405180910390a2505050565b60608060008060008054905085106102085760405162461bcd60e51b81526004016100bd9061063e565b600080868154811061022a57634e487b7160e01b600052603260045260246000fd5b9060005260206000209060040201604051806080016040529081600082018054610253906106ab565b80601f016020809104026020016040519081016040528092919081815260200182805461027f906106ab565b80156102cc5780601f106102a1576101008083540402835291602001916102cc565b820191906000526020600020905b8154815290600101906020018083116102af57829003601f168201915b505050505081526020016001820180546102e5906106ab565b80601f0160208091040260200160405190810160405280929190818152602001828054610311906106ab565b801561035e5780601f106103335761010080835404028352916020019161035e565b820191906000526020600020905b81548152906001019060200180831161034157829003601f168201915b505050918352505060028201546020808301919091526003909201546001600160a01b0316604091820152825191830151908301516060909301519199909850919650945092505050565b60005490565b8280546103bb906106ab565b90600052602060002090601f0160209004810192826103dd5760008555610423565b82601f106103f657805160ff1916838001178555610423565b82800160010185558215610423579182015b82811115610423578251825591602001919060010190610408565b5061042f929150610433565b5090565b5b8082111561042f5760008155600101610434565b600082601f830112610458578081fd5b813567ffffffffffffffff80821115610473576104736106e6565b604051601f8301601f191681016020018281118282101715610497576104976106e6565b6040528281528483016020018610156104ae578384fd5b82602086016020830137918201602001929092529392505050565b6000806000606084860312156104dd578283fd5b833567ffffffffffffffff808211156104f4578485fd5b61050087838801610448565b94506020860135915080821115610515578384fd5b5061052286828701610448565b925050604084013590509250925092565b600060208284031215610544578081fd5b5035919050565b60008151808452815b8181101561057057602081850181015186830182015201610554565b818111156105815782602083870101525b50601f01601f19169290920160200192915050565b6000606082526105a9606083018661054b565b82810360208401526105bb818661054b565b915050826040830152949350505050565b6000608082526105df608083018761054b565b82810360208401526105f1818761054b565b604084019590955250506001600160a01b039190911660609091015292915050565b602080825260119082015270155cd95c9b985b59481c995c5d5a5c9959607a1b604082015260600190565b60208082526019908201527f496e76616c696420636572746966696361746520696e64657800000000000000604082015260600190565b602080825260139082015272105d591a5d0819185d19481c995c5d5a5c9959606a1b604082015260600190565b90815260200190565b6002810460018216806106bf57607f821691505b602082108114156106e057634e487b7160e01b600052602260045260246000fd5b50919050565b634e487b7160e01b600052604160045260246000fdfea2646970667358221220a1123a6ea7c37cbd50aaf29f3d5bd15506772ac553641b5b6c0e408c360896de64736f6c63430008000033",
  "immutableReferences": {},
  "source": "// SPDX-License-Identifier: MIT\npragma solidity ^0.8.0;\n\ncontract Certificate {\n    struct Cert {\n        string userName;\n        string auditDate;\n        uint256 score;\n        address issuedTo;\n    }\n\n    Cert[] private certificates;\n\n    event CertificateIssued(\n        string userName,\n        string auditDate,\n        uint256 score,\n        address indexed issuedTo\n    );\n\n    function issueCertificate(string memory _userName, string memory _auditDate, uint256 _score) public {\n        require(bytes(_userName).length > 0, \"Username required\");\n        require(bytes(_auditDate).length > 0, \"Audit date required\");\n\n        certificates.push(Cert({\n            userName: _userName,\n            auditDate: _auditDate,\n            score: _score,\n            issuedTo: msg.sender\n        }));\n\n        emit CertificateIssued(_userName, _auditDate, _score, msg.sender);\n    }\n\n    function getCertificate(uint256 index) public view returns (string memory, string memory, uint256, address) {\n        require(index < certificates.length, \"Invalid certificate index\");\n        Cert memory cert = certificates[index];\n        return (cert.userName, cert.auditDate, cert.score, cert.issuedTo);\n    }\n\n    function getTotalCertificates() public view returns (uint256) {\n        return certificates.length;\n    }\n}\n",
  "sourcePath": "E:\\energy auditor\\energy-blockchain\\contracts\\Certificate.sol",
  "compiler": {
    "name": "solc",
    "version": "0.8.0+commit.c7dfd78e.Emscripten.clang"
  },
  "schemaVersion": "3.4.16",
  "updatedAt": "2025-05-22T01:50:15.181Z",
  "networkType": "ethereum",
  "devdoc": {
    "kind": "dev",
    "methods": {},
    "version": 1
  },
  "userdoc": {
    "kind": "user",
    "methods": {},
    "version": 1
  }
}